:100000000C942A000C9447000C9447000C94470071
:100010000C9447000C9447000C9447000C94470044
:100020000C9447000C9447000C9447000C94470034
:100030000C9447000C9447000C9447000C94470024
:100040000C9467070C9447000C9447000C944700ED
:100050000C94470011241FBECFE5D8E0DEBFCDBF12
:1000600010E0A0E6B0E0E8E3F1E402C005900D92F4
:10007000AC3FB107D9F711E0ACEFB0E001C01D9281
:10008000A131B107E1F70E94F9110C949A200C9468
:100090000000EF92FF920F931F937B018C0120E0F1
:1000A00030E040E05FE40E94490388238CF0C801FF
:1000B000B70120E030E040E05FE40E94C1010E940F
:1000C000A9039B01AC01205030404040504806C07D
:1000D000C801B7010E94A9039B01AC01B901CA0183
:1000E0001F910F91FF90EF900895A0E0B0E0EBE733
:1000F000F0E00C946320DC012B01FA019C9192301A
:1001000008F439C1EB018881823008F433C194309E
:1001100069F4843009F02FC111969C91119789815F
:10012000981709F428C1A5ECB0E025C1843009F482
:1001300021C18230A9F4923009F01DC19A01AD01AC
:1001400088E0EA010990AE01E90109929E0181501F
:10015000C1F7E201898111969C918923818308C1AD
:10016000923009F407C112962D903C901397EB0141
:100170008A819B811496AD90BD90CD90DC901797AD
:10018000EC80FD800E811F819101281B390BB90184
:1001900037FF04C066277727621B730B6032710537
:1001A0000CF061C0121613066CF537014801062EDB
:1001B00004C096948794779467940A94D2F721E0C8
:1001C00030E040E050E004C0220F331F441F551FB1
:1001D0006A95D2F721503040404050402E213F21B7
:1001E00040235123211531054105510521F021E01E
:1001F00030E040E050E079018A01E628F72808293C
:1002000019293CC0232BD1F1260E371E350146019A
:10021000062E04C096948794779467940A94D2F734
:1002200021E030E040E050E004C0220F331F441FC3
:10023000551F6A95D2F721503040404050402A2146
:100240003B214C215D21211531054105510521F04E
:1002500021E030E040E050E059016A01A628B728CB
:10026000C828D9280BC0821593052CF01C01AA249C
:10027000BB24650103C0EE24FF24870111969C91E5
:10028000D20111968C91981709F445C0992339F041
:10029000A80197012A193B094C095D0906C0A6016E
:1002A00095012E193F09400B510B57FD08C01182D3
:1002B0003382228224833583468357831DC081E0A5
:1002C00081833382228288279927DC01821B930B4A
:1002D000A40BB50B84839583A683B7830DC0220F2F
:1002E000331F441F551F24833583468357838281E0
:1002F000938101979383828324813581468157813D
:10030000DA01C9010197A109B1098F5F9F4FAF4F72
:10031000BF4328F30BC0918333822282EA0CFB1C7B
:100320000C1D1D1DE482F5820683178383E0808304
:10033000248135814681578157FF1AC0C901AA27F8
:1003400097FDA095BA2F81709070A070B0705695EF
:10035000479537952795822B932BA42BB52B848318
:100360009583A683B7838281938101969383828349
:10037000DF0101C0D201CD01CDB7DEB7E2E10C94BF
:100380007F20A0E2B0E0E7ECF1E00C946F206983FD
:100390007A838B839C832D833E834F835887E9E048
:1003A000EE2EF12CEC0EFD1ECE010196B7010E943F
:1003B000D2048E010F5E1F4FCE010596B8010E9438
:1003C000D2048A8991E089278A8BC701B801AE01DE
:1003D000475E5F4F0E9475000E94FD03A096E6E015
:1003E0000C948B20A0E2B0E0E8EFF1E00C946F20D9
:1003F00069837A838B839C832D833E834F835887C5
:10040000F9E0EF2EF12CEC0EFD1ECE010196B701A6
:100410000E94D2048E010F5E1F4FCE010596B801D7
:100420000E94D204C701B801AE01475E5F4F0E942F
:1004300075000E94FD03A096E6E00C948B20A0E2DC
:10044000B0E0E5E2F2E00C94632069837A838B8369
:100450009C832D833E834F835887CE010196BE0136
:10046000675F7F4F0E94D204CE010596BE016F5E8A
:100470007F4F0E94D2049985923088F0898982301A
:10048000C8F0943019F4823051F404C0843029F457
:10049000923081F485EC90E0C6C0923049F420E0BF
:1004A0009A858A89981321E02A87CE010996BBC0D4
:1004B000823049F420E09A858A89981321E02A8BBA
:1004C000CE014196B0C02D843E844F8458886D88FB
:1004D0007E888F88988CEE24FF248701AA24BB2471
:1004E000650140E050E060E070E0E0E0F0E0C10174
:1004F00081709070892BE9F0E60CF71C081D191D1E
:100500009A01AB012A0D3B1D4C1D5D1D80E090E062
:10051000A0E0B0E0E614F7040805190520F481E036
:1005200090E0A0E0B0E0BA01A901480F591F6A1F8E
:100530007B1FAA0CBB1CCC1CDD1C97FE08C081E0F5
:1005400090E0A0E0B0E0A82AB92ACA2ADB2A3196B6
:10055000E032F10549F0660C771C881C991C569412
:10056000479437942794C3CFFA85EA892B893C892D
:100570008B859C85280F391F2E5F3F4F17C0CA01FE
:1005800081709070892B61F016950795F794E79428
:1005900080E090E0A0E0B0E8E82AF92A0A2B1B2BC3
:1005A00076956795579547952F5F3F4F77FDE7CF36
:1005B0000CC0440F551F661F771F17FD4160EE0CDE
:1005C000FF1C001F111F21503040403090E05907A0
:1005D00090E0690790E4790760F32B8F3C8FDB0193
:1005E000CA018F779070A070B07080349105A1051A
:1005F000B10561F447FD0AC0E114F10401051105DC
:1006000029F0405C5F4F6F4F7F4F40781A8EFE1786
:1006100011F081E08A8F4D8F5E8F6F8F78A383E01A
:10062000898FCE0149960E94FD03A096E2E10C94C9
:100630007F20A8E1B0E0EFE1F3E00C946F20698344
:100640007A838B839C832D833E834F83588789E0F5
:10065000E82EF12CEC0EFD1ECE010196B7010E9492
:10066000D2048E010F5E1F4FCE010596B8010E9485
:10067000D2048985823040F08989823028F0C70110
:10068000B8010E944A0501C08FEF6896E6E00C941D
:100690008B20A8E1B0E0EFE4F3E00C946F206983D5
:1006A0007A838B839C832D833E834F83588789E095
:1006B000E82EF12CEC0EFD1ECE010196B7010E9432
:1006C000D2048E010F5E1F4FCE010596B8010E9425
:1006D000D2048985823040F08989823028F0C701B0
:1006E000B8010E944A0501C08FEF6896E6E00C94BD
:1006F0008B20A8E1B0E0EFE7F3E00C946F20698372
:100700007A838B839C832D833E834F83588789E034
:10071000E82EF12CEC0EFD1ECE010196B7010E94D1
:10072000D2048E010F5E1F4FCE010596B8010E94C4
:10073000D2048985823040F08989823028F0C7014F
:10074000B8010E944A0501C081E06896E6E00C9479
:100750008B20ACE0B0E0EFEAF3E00C947320698307
:100760007A838B839C83CE010196BE016B5F7F4FA2
:100770000E94D2048D81823061F1823050F1843048
:1007800021F48E81882351F12EC02F81388537FDC9
:1007900020C06E812F3131051CF06623F9F023C093
:1007A0008EE190E0821B930B29853A854B855C8511
:1007B00004C056954795379527958A95D2F76623B5
:1007C000B1F050954095309521953F4F4F4F5F4F79
:1007D0000EC020E030E040E050E009C02FEF3FEFD6
:1007E0004FEF5FE704C020E030E040E050E8B9019F
:1007F000CA012C96E2E00C948F20DF92EF92FF92D8
:100800000F931F93FC01E480F58006811781D1804E
:100810008081823048F480E090E0A0E1B0E0E82AF6
:10082000F92A0A2B1B2BA5C0843009F49FC0823003
:1008300021F4EE24FF24870105C0E114F104010531
:10084000110519F4E0E0F0E096C0628173819FEF3A
:10085000623879070CF05BC022E83FEF261B370BAC
:100860002A3131052CF020E030E040E050E02AC091
:10087000B801A701022E04C0769567955795479554
:100880000A94D2F781E090E0A0E0B0E004C0880FC5
:10089000991FAA1FBB1F2A95D2F70197A109B10979
:1008A0008E219F21A023B1230097A105B10521F03E
:1008B00081E090E0A0E0B0E09A01AB01282B392B59
:1008C0004A2B5B2BDA01C9018F779070A070B07052
:1008D00080349105A105B10539F427FF09C0205CDA
:1008E0003F4F4F4F5F4F04C0215C3F4F4F4F5F4F13
:1008F000E0E0F0E02030A0E03A07A0E04A07A0E402
:100900005A0710F0E1E0F0E079018A0127C0603871
:10091000710564F5FB01E158FF4FD801C7018F77DE
:100920009070A070B07080349105A105B10539F4C4
:10093000E7FE0DC080E490E0A0E0B0E004C08FE3EB
:1009400090E0A0E0B0E0E80EF91E0A1F1B1F17FFA1
:1009500005C016950795F794E794319687E01695AC
:100960000795F794E7948A95D1F705C0EE24FF2404
:100970008701EFEFF0E06E2F679566276795902F60
:100980009F77D794DD24D7948E2F8695492F462BB9
:10099000582F5D29B701CA011F910F91FF90EF9069
:1009A000DF900895FC01DB01408151812281622F9B
:1009B0006F7770E0221F2227221F9381892F880FD3
:1009C000822B282F30E0991F9927991F11969C930D
:1009D000119721153105A9F54115510561057105DD
:1009E00011F482E037C082E89FEF13969C938E93B8
:1009F00012979A01AB0167E0220F331F441F551F66
:100A00006A95D1F783E08C930DC0220F331F441FEA
:100A1000551F12968D919C911397019713969C9355
:100A20008E931297203080E0380780E0480780E4FA
:100A3000580758F314962D933D934D935C93179755
:100A400008952F3F310579F4411551056105710570
:100A500019F484E08C93089564FF03C081E08C93C3
:100A600012C01C9210C02F57304013963C932E9307
:100A7000129783E08C9387E0440F551F661F771F02
:100A80008A95D1F7706414964D935D936D937C9322
:100A9000179708951F93DC01FB019C91923008F495
:100AA00047C08081823008F443C0943051F41196DD
:100AB0001C91843099F58181682F70E0611B710968
:100AC0003FC0843021F0923031F48230B9F181811D
:100AD000882389F12DC011961C9111978230F1F075
:100AE00081811817D9F412962D913C911397828128
:100AF00093818217930794F028173907BCF0149656
:100B00008D919D910D90BC91A02D248135814681C0
:100B10005781281739074A075B0718F4112341F05A
:100B20000AC082179307A407B50740F4112319F0F0
:100B300061E070E005C06FEF7FEF02C060E070E041
:100B4000CB011F910895DF93CF93CDB7DEB7A7E216
:100B5000B0E0E7E2F0E080818F778C93A7E2B0E02D
:100B6000E7E2F0E08081805C8C93A7E2B0E0E7E20E
:100B7000F0E08081805E8C93A6E2B0E0E6E2F0E0F7
:100B80008081887F8C93A6E2B0E0E6E2F0E080818D
:100B900087608C93A6E2B0E0E6E2F0E080818058C6
:100BA0008C93CF91DF910895DF93CF93CDB7DEB7CC
:100BB00028970FB6F894DEBF0FBECDBF8E8378871F
:100BC0006F831D8219821A821B821C82809104010C
:100BD000882309F05EC081E080930401A7E2B0E0C1
:100BE000E7E2F0E08081807E8C93A7E2B0E0E7E26C
:100BF000F0E090818E81892B8C93A6E2B0E0E6E252
:100C0000F0E08081805C8C930BC089819A81AB81FC
:100C1000BC810196A11DB11D89839A83AB83BC83DE
:100C2000E6E2F0E0808182958F70882F90E08170FD
:100C30009070009761F489819A81AB81BC81803585
:100C400023EC920720E0A20720E0B207F1F68981A9
:100C50009A81AB81BC81803523EC920720E0A2070A
:100C600020E0B20719F481E08D8315C0A6E2B0E060
:100C7000E6E2F0E080818F7E8C93E5E2F0E0808117
:100C8000882F90E0EF81F885918380831092040192
:100C900002C083E08D838D8128960FB6F894DEBF65
:100CA0000FBECDBFCF91DF910895DF93CF9300D0DA
:100CB00000D000D0CDB7DEB78A837C836B835E83A0
:100CC0004D831982809104018823D1F58D819E8105
:100CD000009721F08B819C81009719F482E0898331
:100CE00031C010920A0181E0809304018D819E81C0
:100CF0009093FD008093FC008B819C819093FF007A
:100D00008093FE00A7E2B0E0E7E2F0E08081807E21
:100D10008C93A7E2B0E0E7E2F0E090818A81892B32
:100D20008C93A6E2B0E0E6E2F0E08081805C8C93F8
:100D3000A6E2B0E0E6E2F0E08081885F8C9302C03A
:100D400083E08983898126960FB6F894DEBF0FBEB3
:100D5000CDBFCF91DF910895DF93CF9300D000D026
:100D6000CDB7DEB79C838B831A82EB81FC818581B2
:100D70009681009799F180910401882361F5198289
:100D80001DC0EB81FC81208131818981882F90E019
:100D9000F901E80FF91F4081EB81FC812381348147
:100DA0008981882F90E0880F991F280F391F842F81
:100DB000B9010E94D40589818F5F8983EB81FC8111
:100DC000928189818917E8F2EB81FC810580F681A7
:100DD000E02D099505C083E08A8302C082E08A8302
:100DE0008A810F900F900F900F90CF91DF9108950F
:100DF000DF93CF9300D00F92CDB7DEB79B838A836A
:100E00001982EA81FB8185819681009709F456C099
:100E100080910401882309F04EC081E080930A018B
:100E200081E080930401EA81FB8185819681909322
:100E3000FD008093FC00EA81FB8180819181909389
:100E4000010180930001EA81FB818281809302018C
:100E500010920301EA81FB81838194819093FF00CA
:100E60008093FE00A7E2B0E0E7E2F0E08081807EC0
:100E70008C93A7E2B0E0E7E2F0E04081EA81FB81F9
:100E80002081318180910301882F90E0F901E80FE2
:100E9000F91F8081842B8C93A6E2B0E0E6E2F0E0BB
:100EA0008081805C8C93A6E2B0E0E6E2F0E0808195
:100EB000885F8C9305C083E0898302C082E08983C8
:100EC00089810F900F900F90CF91DF9108951F921D
:100ED0000F920FB60F9211242F933F934F935F936E
:100EE0006F937F938F939F93AF93BF93EF93FF93F2
:100EF000DF93CF93CDB7DEB780910A018823D1F479
:100F0000A091FE00B091FF00E5E2F0E08081882F23
:100F100090E08D939C9310920401E091FC00F0917D
:100F2000FD000995A6E2B0E0E6E2F0E08081877F6F
:100F30008C9355C080910A01813009F050C02091F6
:100F4000FE003091FF0080910301882F90E0880F10
:100F5000991FD901A80FB91FE5E2F0E08081882F21
:100F600090E011969C938E93809103018F5F809304
:100F700003019091030180910201981779F4109276
:100F80000401E091FC00F091FD000995A6E2B0E0BB
:100F9000E6E2F0E08081877F8C9321C0A7E2B0E099
:100FA000E7E2F0E08081807E8C93A7E2B0E0E7E2A8
:100FB000F0E0408120910001309101018091030116
:100FC000882F90E0F901E80FF91F8081842B8C9322
:100FD000A6E2B0E0E6E2F0E08081805C8C93CF9105
:100FE000DF91FF91EF91BF91AF919F918F917F9191
:100FF0006F915F914F913F912F910F900FBE0F9086
:101000001F901895DF93CF93CDB7DEB7AC970FB68F
:10101000F894DEBF0FBECDBF8CA780EF8BA781E019
:1010200060E040E00E943E0E81E061E040E00E940E
:101030003E0E9BA58CA589238BA780E06BA50E9403
:10104000530F81E062E041E00E943E0E80E090E0BC
:10105000A0E0B0E48FA398A7A9A7BAA76FA178A52D
:1010600089A59AA520E030E04AEF54E40E941F02CF
:10107000DC01CB018BA39CA3ADA3BEA36BA17CA180
:101080008DA19EA120E030E040E85FE30E9479035B
:1010900088232CF481E090E09AA389A33FC06BA140
:1010A0007CA18DA19EA120E03FEF4FE757E40E9475
:1010B000190318164CF56FA178A589A59AA520E00B
:1010C00030E040E251E40E941F02DC01CB01BC0190
:1010D000CD010E944900DC01CB019AA389A30FC076
:1010E00088EC90E098A38F8F8F8D98A10197F1F7EE
:1010F00098A38F8F89A19AA101979AA389A389A107
:101100009AA1009769F714C06BA17CA18DA19EA143
:101110000E944900DC01CB019AA389A389A19AA16D
:101120009E8F8D8F8D8D9E8D0197F1F79E8F8D8F68
:1011300081E062E040E00E943E0E8091050188233C
:1011400009F48CC080EF8BA78BA5982F90958CA568
:1011500089238BA78BA5982F9295907F80E0692F8C
:101160000E94530F81E062E041E00E943E0E80E069
:1011700090E0A0E0B0E4898F9A8FAB8FBC8F698D2F
:101180007A8D8B8D9C8D20E030E04AEF54E40E94F4
:101190001F02DC01CB018D8B9E8BAF8BB88F6D89CD
:1011A0007E898F89988D20E030E040E85FE30E94DF
:1011B000790388232CF481E090E09C8B8B8B3FC0DB
:1011C0006D897E898F89988D20E03FEF4FE757E446
:1011D0000E94190318164CF5698D7A8D8B8D9C8DA4
:1011E00020E030E040E251E40E941F02DC01CB012C
:1011F000BC01CD010E944900DC01CB019C8B8B8B93
:101200000FC088EC90E09A8B898B89899A89019725
:10121000F1F79A8B898B8B899C8901979C8B8B8B9F
:101220008B899C89009769F714C06D897E898F89A5
:10123000988D0E944900DC01CB019C8B8B8B8B89A4
:101240009C89988B8F878F8598890197F1F7988B68
:101250008F8781E062E040E00E943E0E80E090E0F7
:10126000A0E0B0E48B879C87AD87BE876B857C85CB
:101270008D859E8520E030E04AEF54E40E941F02F5
:10128000DC01CB018F839887A987BA876F81788526
:1012900089859A8520E030E040E85FE30E94790389
:1012A00088232CF481E090E09E838D833FC06F8182
:1012B000788589859A8520E03FEF4FE757E40E94C3
:1012C000190318164CF56B857C858D859E8520E06D
:1012D00030E040E251E40E941F02DC01CB01BC017E
:1012E000CD010E944900DC01CB019E838D830FC09C
:1012F00088EC90E09C838B838B819C810197F1F734
:101300009C838B838D819E8101979E838D838D81AC
:101310009E81009769F714C06F81788589859A85C9
:101320000E944900DC01CB019E838D838D819E81CB
:101330009A83898389819A810197F1F79A838983B6
:10134000AC960FB6F894DEBF0FBECDBFCF91DF9144
:101350000895DF93CF9300D0CDB7DEB71A8281E036
:1013600060E040E00E943E0E81E061E041E00E94CA
:101370003E0E19821CC09E012E5F3F4F80E06981A6
:10138000A9010E949B0F8A81282F30E08981882F34
:1013900090E0A90102C0440F551F8A95E2F7CA01E7
:1013A000982F8A81890F8A8389818F5F89838981B8
:1013B000873008F38A810F900F90CF91DF910895C5
:1013C000DF93CF93CDB7DEB7AC970FB6F894DEBFFF
:1013D0000FBECDBF8CA780EF8BA781E060E041E01E
:1013E0000E943E0E81E061E040E00E943E0E9BA51F
:1013F0008CA589238BA780E06BA50E94530F81E009
:1014000062E041E00E943E0E80E090E0A0E0B0E4A7
:101410008FA398A7A9A7BAA76FA178A589A59AA510
:1014200020E030E04AEF54E40E941F02DC01CB01CF
:101430008BA39CA3ADA3BEA36BA17CA18DA19EA1F8
:1014400020E030E040E85FE30E94790388232CF439
:1014500081E090E09AA389A33FC06BA17CA18DA1FC
:101460009EA120E03FEF4FE757E40E9419031816B2
:101470004CF56FA178A589A59AA520E030E040E25F
:1014800051E40E941F02DC01CB01BC01CD010E948E
:101490004900DC01CB019AA389A30FC088EC90E03E
:1014A00098A38F8F8F8D98A10197F1F798A38F8FB5
:1014B00089A19AA101979AA389A389A19AA10097CA
:1014C00069F714C06BA17CA18DA19EA10E94490067
:1014D000DC01CB019AA389A389A19AA19E8F8D8F4C
:1014E0008D8D9E8D0197F1F79E8F8D8F81E062E04B
:1014F00040E00E943E0E80EF8BA78BA5982F909521
:101500008CA589238BA78BA5982F9295907F80E03F
:10151000692F0E94530F81E062E041E00E943E0E7D
:1015200080E090E0A0E0B0E4898F9A8FAB8FBC8F11
:10153000698D7A8D8B8D9C8D20E030E04AEF54E4EC
:101540000E941F02DC01CB018D8B9E8BAF8BB88F6D
:101550006D897E898F89988D20E030E040E85FE3D7
:101560000E94790388232CF481E090E09C8B8B8B84
:101570003FC06D897E898F89988D20E03FEF4FE7CE
:1015800057E40E94190318164CF5698D7A8D8B8DDE
:101590009C8D20E030E040E251E40E941F02DC011B
:1015A000CB01BC01CD010E944900DC01CB019C8B29
:1015B0008B8B0FC088EC90E09A8B898B89899A89F4
:1015C0000197F1F79A8B898B8B899C8901979C8B6A
:1015D0008B8B8B899C89009769F714C06D897E89F4
:1015E0008F89988D0E944900DC01CB019C8B8B8BED
:1015F0008B899C89988B8F878F8598890197F1F7C4
:10160000988B8F8781E062E040E00E943E0E80E090
:1016100090E0A0E0B0E48B879C87AD87BE876B85A8
:101620007C858D859E8520E030E04AEF54E40E9461
:101630001F02DC01CB018F839887A987BA876F814E
:10164000788589859A8520E030E040E85FE30E9454
:10165000790388232CF481E090E09E838D833FC042
:101660006F81788589859A8520E03FEF4FE757E4C1
:101670000E94190318164CF56B857C858D859E8517
:1016800020E030E040E251E40E941F02DC01CB0187
:10169000BC01CD010E944900DC01CB019E838D83FA
:1016A0000FC088EC90E09C838B838B819C81019799
:1016B000F1F79C838B838D819E8101979E838D831F
:1016C0008D819E81009769F714C06F817885898527
:1016D0009A850E944900DC01CB019E838D838D8118
:1016E0009E819A83898389819A810197F1F79A83F0
:1016F000898386E00E940208AC960FB6F894DEBF9C
:101700000FBECDBFCF91DF910895DF93CF93CDB7BB
:10171000DEB7E8970FB6F894DEBF0FBECDBF80E00E
:1017200090E0A0E2B2E48DAB9EABAFABB8AF6DA9D9
:101730007EA98FA998AD20E030E04AEF54E40E94E2
:101740001F02DC01CB0189AB9AABABABBCAB69A987
:101750007AA98BA99CA920E030E040E85FE30E94D1
:10176000790388232CF481E090E098AB8FA73FC0E9
:1017700069A97AA98BA99CA920E03FEF4FE757E41C
:101780000E94190318164CF56DA97EA98FA998AD72
:1017900020E030E040E251E40E941F02DC01CB0176
:1017A000BC01CD010E944900DC01CB0198AB8FA7A1
:1017B0000FC088EC90E09EA78DA78DA59EA50197F0
:1017C000F1F79EA78DA78FA598A9019798AB8FA732
:1017D0008FA598A9009769F714C069A97AA98BA960
:1017E0009CA90E944900DC01CB0198AB8FA78FA573
:1017F00098A99CA78BA78BA59CA50197F1F79CA7FF
:101800008BA780E20E94020880E20E94020880E822
:101810000E94020880E090E0A0E8BFE38FA398A7B1
:10182000A9A7BAA76FA178A589A59AA520E030E05D
:101830004AEF54E40E941F02DC01CB018BA39CA35E
:10184000ADA3BEA36BA17CA18DA19EA120E030E041
:1018500040E85FE30E94790388232CF481E090E064
:101860009AA389A33FC06BA17CA18DA19EA120E07A
:101870003FEF4FE757E40E94190318164CF56FA18C
:1018800078A589A59AA520E030E040E251E40E94C5
:101890001F02DC01CB01BC01CD010E944900DC012B
:1018A000CB019AA389A30FC088EC90E098A38F8FF7
:1018B0008F8D98A10197F1F798A38F8F89A19AA195
:1018C00001979AA389A389A19AA1009769F714C0E7
:1018D0006BA17CA18DA19EA10E944900DC01CB01DE
:1018E0009AA389A389A19AA19E8F8D8F8D8D9E8D9C
:1018F0000197F1F79E8F8D8F80E00E94020880ECA7
:101900000E94020880E090E0A0E8BFE3898F9A8FF0
:10191000AB8FBC8F698D7A8D8B8D9C8D20E030E0F4
:101920004AEF54E40E941F02DC01CB018D8B9E8B99
:10193000AF8BB88F6D897E898F89988D20E030E0DC
:1019400040E85FE30E94790388232CF481E090E073
:101950009C8B8B8B3FC06D897E898F89988D20E011
:101960003FEF4FE757E40E94190318164CF5698DB5
:101970007A8D8B8D9C8D20E030E040E251E40E9416
:101980001F02DC01CB01BC01CD010E944900DC013A
:10199000CB019C8B8B8B0FC088EC90E09A8B898B52
:1019A00089899A890197F1F79A8B898B8B899C8910
:1019B00001979C8B8B8B8B899C89009769F714C04E
:1019C0006D897E898F89988D0E944900DC01CB0149
:1019D0009C8B8B8B8B899C89988B8F878F85988923
:1019E0000197F1F7988B8F8780E00E94020880E1D1
:1019F0000E94020880E090E0A0E0B0E48B879C8722
:101A0000AD87BE876B857C858D859E8520E030E027
:101A10004AEF54E40E941F02DC01CB018F839887B8
:101A2000A987BA876F81788589859A8520E030E01B
:101A300040E85FE30E94790388232CF481E090E082
:101A40009E838D833FC06F81788589859A8520E04C
:101A50003FEF4FE757E40E94190318164CF56B85CA
:101A60007C858D859E8520E030E040E251E40E9437
:101A70001F02DC01CB01BC01CD010E944900DC0149
:101A8000CB019E838D830FC088EC90E09C838B8379
:101A90008B819C810197F1F79C838B838D819E8143
:101AA00001979E838D838D819E81009769F714C075
:101AB0006F81788589859A850E944900DC01CB0178
:101AC0009E838D838D819E819A83898389819A816A
:101AD0000197F1F79A83898381E080930501E89665
:101AE0000FB6F894DEBF0FBECDBFCF91DF91089542
:101AF000DF93CF9300D00F92CDB7DEB79B838A835D
:101B000019820EC08981282F30E08A819B81FC01D7
:101B1000E20FF31F80810E94E00989818F5F898332
:101B20008981282F30E08A819B81FC01E20FF31F1D
:101B30008081882339F70F900F900F90CF91DF911C
:101B40000895DF93CF9300D00F92CDB7DEB78A838D
:101B50006B838A81882351F48B81803120F08B81C3
:101B6000805C898309C08B81898306C08A8181302A
:101B700019F48B81805C8983898180580E940208D6
:101B80000F900F900F90CF91DF910895DF93CF9337
:101B9000CDB7DEB727970FB6F894DEBF0FBECDBF27
:101BA0009C838B836D834E832F831A828D81882F34
:101BB00090E0880F991F880F991F880F991F8A83BB
:101BC0008A81805C0E94020819820EC08981282FB8
:101BD00030E08B819C81FC01E20FF31F80810E9429
:101BE000E00989818F5F89838981883078F38E81CC
:101BF0006F810E94A10D8D810E94E00927960FB68A
:101C0000F894DEBF0FBECDBFCF91DF910895DF9373
:101C1000CF9300D000D0CDB7DEB79C838B838B8170
:101C20009C810E94AC118A838A8189831DC089812D
:101C300081500E94CE119C018B819C81B9010E9430
:101C40002D20CB01805D0E94E009898181500E9496
:101C5000CE119C018B819C81B9010E942D209C8317
:101C60008B838981815089838981181604F30F90B1
:101C70000F900F900F90CF91DF910895DF93CF9346
:101C8000CDB7DEB728970FB6F894DEBF0FBECDBF35
:101C90008A836B834C8319828C81813009F075C0F3
:101CA0008B81883008F06EC08A81282F30E0388719
:101CB0002F838F8198858130910541F12F8138855F
:101CC000223031052CF48F819885009761F057C040
:101CD0002F8138852230310561F18F8198858330DD
:101CE0009105D1F14CC0ABE3B0E0EBE3F0E0408113
:101CF0008B81282F30E081E090E0022E02C0880F17
:101D0000991F0A94E2F7840F8C93C3C0A8E3B0E054
:101D1000E8E3F0E040818B81282F30E081E090E023
:101D2000022E02C0880F991F0A94E2F7840F8C9349
:101D3000B0C0A5E3B0E0E5E3F0E040818B81282F5F
:101D400030E081E090E0022E02C0880F991F0A94D3
:101D5000E2F7840F8C939DC0A2E3B0E0E2E3F0E0F1
:101D600040818B81282F30E081E090E0022E02C07C
:101D7000880F991F0A94E2F7840F8C938AC081E040
:101D8000898387C081E0898384C08C81882309F09E
:101D90007EC08B81883008F077C08A81282F30E0A0
:101DA0003E832D838D819E818130910559F12D8156
:101DB0003E81223031052CF48D819E81009769F09F
:101DC00060C02D813E812230310589F18D819E8157
:101DD0008330910509F440C054C0ABE3B0E0EBE3BD
:101DE000F0E08081482F8B81282F30E081E090E067
:101DF000022E02C0880F991F0A94E2F7809584236F
:101E00008C9347C0A8E3B0E0E8E3F0E08081482F7E
:101E10008B81282F30E081E090E0022E02C0880FF5
:101E2000991F0A94E2F7809584238C9332C0A5E32E
:101E3000B0E0E5E3F0E08081482F8B81282F30E08F
:101E400081E090E0022E02C0880F991F0A94E2F709
:101E5000809584238C931DC0A2E3B0E0E2E3F0E020
:101E60008081482F8B81282F30E081E090E0022E86
:101E700002C0880F991F0A94E2F7809584238C93FF
:101E800008C081E0898305C081E0898302C081E0C8
:101E90008983898128960FB6F894DEBF0FBECDBF27
:101EA000CF91DF910895DF93CF9300D000D00F92B0
:101EB000CDB7DEB78A836B8319828A81282F30E001
:101EC0003D832C838C819D8181309105D1F02C81C3
:101ED0003D81223031052CF48C819D81009761F089
:101EE0001FC02C813D812230310581F08C819D8184
:101EF0008330910581F014C0EBE3F0E08B818083A7
:101F000011C0E8E3F0E08B8180830CC0E5E3F0E0F2
:101F10008B81808307C0E2E3F0E08B81808302C085
:101F200081E0898389810F900F900F900F900F901F
:101F3000CF91DF910895DF93CF93CDB7DEB7279789
:101F40000FB6F894DEBF0FBECDBF8A836B835D836F
:101F50004C8319828B81883008F074C08A81282FC5
:101F600030E03F832E834E815F814130510559F12E
:101F70008E819F818230910534F42E813F8121151D
:101F8000310569F05CC04E815F814230510579F1C5
:101F90008E819F818330910509F43DC050C0E9E3F3
:101FA000F0E08081282F30E08B81882F90E0A9011C
:101FB00002C0559547958A95E2F7CA018170EC8178
:101FC000FD81808341C0E6E3F0E08081282F30E08E
:101FD0008B81882F90E0A90102C0559547958A957D
:101FE000E2F7CA018170EC81FD8180832DC0E3E3BB
:101FF000F0E08081282F30E08B81882F90E0A901CC
:1020000002C0559547958A95E2F7CA018170EC8127
:10201000FD81808319C0E0E3F0E08081282F30E06B
:102020008B81882F90E0A90102C0559547958A952C
:10203000E2F7CA018170EC81FD81808305C081E0F7
:10204000898302C081E08983898127960FB6F8943D
:10205000DEBF0FBECDBFCF91DF910895DF93CF9349
:10206000CDB7DEB7AFE5B0E0EFE5F0E080818058B6
:102070008C93CF91DF910895DF93CF93CDB7DEB7E7
:10208000AFE5B0E0EFE5F0E080818F778C93CF9102
:10209000DF910895DF93CF9300D000D00F92CDB79A
:1020A000DEB78FEF89831A825EC08A81882F90E025
:1020B000FC01E352FF4F908183E0692F40E00E94D2
:1020C0003E0E1B823DC08B81882F90E0FC01EF51BA
:1020D000FF4F90819E012C5F3F4F83E0692FA90144
:1020E0000E949B0F8C81882341F58B81482F50E003
:1020F0008A81282F30E0CA01880F991F880F991F05
:10210000820F931FFC01E353FF4F808189830FC02F
:102110008B81882F90E0FC01EF51FF4F90819E0151
:102120002C5F3F4F83E0692FA9010E949B0F8C8198
:10213000882371F389818D831CC08B818F5F8B8392
:102140008B81843008F4BFCF8A81882F90E0FC0116
:10215000E352FF4F908183E0692F41E00E943E0EE1
:102160008A818F5F8A838A81843008F49ECF898137
:102170008D838D810F900F900F900F900F90CF91C6
:10218000DF910895DF93CF93CDB7DEB7EAE3F0E0B8
:1021900080EF8083E7E3F0E087E78083E4E3F0E02B
:1021A0008FEF8083E1E3F0E080EF8083EBE3F0E00A
:1021B00083E08083E8E3F0E080E28083E5E3F0E021
:1021C0001082E2E3F0E08FEF8083CF91DF910895FA
:1021D000DF93CF9300D00F92CDB7DEB79B838A8376
:1021E0001982EA81FB818081882359F4EA81FB818D
:1021F0008281EA81FB819381692F40E00E943E0E3B
:1022000012C0EA81FB818081813059F4EA81FB812F
:102210008281EA81FB819381692F41E00E943E0E19
:1022200002C081E0898389810F900F900F90CF9138
:10223000DF910895DF93CF9300D00F92CDB7DEB733
:102240009B838A831982EA81FB818081882359F4E8
:10225000EA81FB818281EA81FB819381692F41E0E0
:102260000E943E0E12C0EA81FB818081813059F4C8
:10227000EA81FB818281EA81FB819381692F40E0C1
:102280000E943E0E02C081E0898389810F900F90E9
:102290000F90CF91DF910895DF93CF9300D000D0BE
:1022A0000F92CDB7DEB79C838B836D831982EB8150
:1022B000FC8180818823F9F4EB81FC818281EB81B0
:1022C000FC8193819E012E5F3F4F692FA9010E94DF
:1022D0009B0F8A818823B9F5EB81FC8121818D8157
:1022E000882F90E0FC01EB51FF4F9081822F692FE6
:1022F0000E94530F28C0EB81FC818081813009F559
:10230000EB81FC818281EB81FC8193819E012E5FB8
:102310003F4F692FA9010E949B0F8A81813099F458
:10232000EB81FC8121818D81882F90E0FC01EB51B4
:10233000FF4F8081982F9095822F692F0E94530F15
:1023400002C081E0898389810F900F900F900F90D8
:102350000F90CF91DF910895DF93CF9300D00F922C
:10236000CDB7DEB79B838A8319820DC08A819B819A
:102370002AE030E0B9010E942D20CB019B838A83A3
:1023800089818F5F89838A819B81009779F7898111
:102390000F900F900F90CF91DF910895DF93CF931F
:1023A00000D000D0CDB7DEB78C8381E090E09A8377
:1023B00089831B8211C089819A819C01220F331F5E
:1023C000C901880F991F880F991F820F931F9A8345
:1023D00089838B818F5F8B839B818C81981758F3C6
:1023E00089819A810F900F900F900F90CF91DF917C
:1023F00008950F931F93DF93CF93CDB7DEB7C755E3
:10240000D0400FB6F894DEBF0FBECDBF0E94C21001
:102410000E94850B0E94A3050E942E10FE01E15B25
:10242000FF4F8DE28083FE01E25BFF4F82E08083FD
:10243000FE01E45BFF4F11821082FE01E65BFF4F5D
:1024400011821082FE01E85BFF4F81E090E09183F2
:102450008083FE01E95BFF4F1082CE01805B9F4FBE
:1024600065969FAF8EAF659748EF50E067965FAF78
:102470004EAF679753E068965FAF68976796EEAD8B
:10248000FFAD6797008067964EAD5FAD67974F5F72
:102490005F4F67965FAF4EAF67976596EEADFFAD46
:1024A0006597008265964EAD5FAD65974F5F5F4F54
:1024B00065965FAF4EAF659768965FAD6897515070
:1024C00068965FAF689768968FAD68978823B1F676
:1024D000FE01E25BFF4F8081282F30E0CE01805B60
:1024E0009F4FFC01E20FF31F908182E0692F0E9451
:1024F000530F80E690E00E94780DFE01ED5BFF4FE8
:1025000080E090E0AAE7B4E480839183A283B38360
:102510008E01015C1F4FFE01ED5BFF4F60817181F9
:102520008281938120E030E04AEF54E40E941F0250
:10253000DC01CB01F80180839183A283B383FE0188
:10254000FF96608171818281938120E030E040E8D4
:102550005FE30E94790388232CF481E090E09EAF32
:102560008DAF46C0FE01FF966081718182819381AB
:1025700020E03FEF4FE757E40E941903181664F577
:10258000FE01ED5BFF4F608171818281938120E0CC
:1025900030E040E251E40E941F02DC01CB01BC01AB
:1025A000CD010E944900DC01CB019EAF8DAF0FC071
:1025B00088EC90E09CAF8BAF8BAD9CAD0197F1F7B1
:1025C0009CAF8BAF8DAD9EAD01979EAF8DAF8DADA6
:1025D0009EAD009769F716C0FE01FF96608171817C
:1025E000828193810E944900DC01CB019EAF8DAFB7
:1025F0008DAD9EAD9AAF89AF89AD9AAD0197F1F7D8
:102600009AAF89AF81E00E94020881E00E9402082F
:1026100088E690E00E94780D0E944A10FE01E15B7E
:10262000FF4F8083FE01E15BFF4F80818F3FA1F36D
:10263000FE01E15BFF4F80818A3008F041C0FE015E
:10264000E95BFF4F81E08083FE01E15BFF4F80810A
:10265000882F90E00E94070EFE01E15BFF4F808112
:10266000282F30E0FE01E85BFF4F80819181A901B6
:10267000489F9001499F300D589F300D1124DE0175
:10268000A65BBF4FFE01E65BFF4F80819181820F09
:10269000931F8D939C93DE01A85BBF4FFE01E85B07
:1026A000FF4F808191819C01220F331FC901880F48
:1026B000991F880F991F820F931F11969C938E93D9
:1026C000FE01E15BFF4F80818E3009F0A5CF8E01C6
:1026D000085B1F4FFE01E85BFF4F808191812AE07C
:1026E00030E0B9010E942D20CB01F8019183808355
:1026F000DE01A45BBF4FFE01E65BFF4F808191814D
:102700008D939C93FE01E65BFF4F1182108281E066
:102710000E94020884E790E00E94780D0E944A100F
:10272000FE01E15BFF4F8083FE01E15BFF4F808193
:102730008F3FA1F3FE01E15BFF4F80818A30C8F536
:10274000FE01E15BFF4F8081882F90E00E94070E21
:10275000FE01E15BFF4F8081282F30E0FE01E85B46
:10276000FF4F80819181A901489F9001499F300DC1
:10277000589F300D1124DE01A65BBF4FFE01E65BC2
:10278000FF4F80819181820F931F11969C938E93AE
:102790008E01085B1F4FFE01E85BFF4F8081918136
:1027A0002AE030E0B9010E942D20CB01F80191838D
:1027B0008083FE01E15BFF4F80818E3009F0AECF58
:1027C00081E060E00E94A10DFE01E65BFF4F808189
:1027D00091810E94070E80E20E94E009FE01E45B05
:1027E000FF4F808191810E94070E80E090E0AAE770
:1027F000B4E48DAB9EABAFABB8AF6DA97EA98FA98A
:1028000098AD20E030E04AEF54E40E941F02DC0162
:10281000CB0189AB9AABABABBCAB69A97AA98BA94D
:102820009CA920E030E040E85FE30E947903882320
:102830002CF481E090E098AB8FA73FC069A97AA9FA
:102840008BA99CA920E03FEF4FE757E40E941903B2
:1028500018164CF56DA97EA98FA998AD20E030E03F
:1028600040E251E40E941F02DC01CB01BC01CD011A
:102870000E944900DC01CB0198AB8FA70FC088EC08
:1028800090E09EA78DA78DA59EA50197F1F79EA725
:102890008DA78FA598A9019798AB8FA78FA598A909
:1028A000009769F714C069A97AA98BA99CA90E940D
:1028B0004900DC01CB0198AB8FA78FA598A99CA7F5
:1028C0008BA78BA59CA50197F1F79CA78BA7FE0171
:1028D000E65BFF4FDE01A45BBF4F208131818D910C
:1028E0009C9111972817390709F097C0FE01E95B01
:1028F000FF4F8081813009F090C081E00E94020882
:1029000080E890E00E94780DFE01E65BFF4F808139
:1029100091810E94070E80E090E0AAE7B4E48FA3C3
:1029200098A7A9A7BAA76FA178A589A59AA520E01D
:1029300030E04AEF54E40E941F02DC01CB018BA37C
:102940009CA3ADA3BEA36BA17CA18DA19EA120E001
:1029500030E040E85FE30E94790388232CF481E0B3
:1029600090E09AA389A33FC06BA17CA18DA19EA1F9
:1029700020E03FEF4FE757E40E94190318164CF58B
:102980006FA178A589A59AA520E030E040E251E446
:102990000E941F02DC01CB01BC01CD010E94490055
:1029A000DC01CB019AA389A30FC088EC90E098A327
:1029B0008F8F8F8D98A10197F1F798A38F8F89A1A1
:1029C0009AA101979AA389A389A19AA1009769F76F
:1029D00014C06BA17CA18DA19EA10E944900DC01C5
:1029E000CB019AA389A389A19AA19E8F8D8F8D8DEA
:1029F0009E8D0197F1F79E8F8D8F81E00E940208D6
:102A000081E064E041E00E943E0E81E065E040E04C
:102A10000E943E0E0E94D916FDCFFE01E95BFF4FDA
:102A20008081813009F0B8C0DE01A25BBF4FFE019A
:102A3000E25BFF4F808181508C93FE01E25BFF4F90
:102A40008081282F30E0CE01805B9F4FFC01E20F98
:102A5000F31F908182E0692F0E94530FFE01E65B15
:102A6000FF4F11821082FE01E45BFF4F1182108242
:102A7000FE01E85BFF4F81E090E09183808381E07D
:102A80000E9402088CE890E00E94780D80E090E0BF
:102A9000AAE7B4E4898F9A8FAB8FBC8F698D7A8D4A
:102AA0008B8D9C8D20E030E04AEF54E40E941F02A1
:102AB000DC01CB018D8B9E8BAF8BB88F6D897E89AE
:102AC0008F89988D20E030E040E85FE30E94790331
:102AD00088232CF481E090E09C8B8B8B3FC06D8928
:102AE0007E898F89988D20E03FEF4FE757E40E9461
:102AF000190318164CF5698D7A8D8B8D9C8D20E00D
:102B000030E040E251E40E941F02DC01CB01BC0135
:102B1000CD010E944900DC01CB019C8B8B8B0FC047
:102B200088EC90E09A8B898B89899A890197F1F7D3
:102B30009A8B898B8B899C8901979C8B8B8B8B893A
:102B40009C89009769F714C06D897E898F89988D5B
:102B50000E944900DC01CB019C8B8B8B8B899C896B
:102B6000988B8F878F8598890197F1F7988B8F873E
:102B700081E00E940208FE01E25BFF4F8081882312
:102B800029F0FE01E95BFF4F1082C4CD80E063E0D5
:102B900041E00E943E0E39CD81E00E94020889E9A1
:102BA00090E00E94780D81E060E00E94A10D84EA2F
:102BB00090E00E94780D80E090E0AAE7B4E48B8773
:102BC0009C87AD87BE876B857C858D859E8520E043
:102BD00030E04AEF54E40E941F02DC01CB018F83F6
:102BE0009887A987BA876F81788589859A8520E03B
:102BF00030E040E85FE30E94790388232CF481E011
:102C000090E09E838D833FC06F81788589859A850A
:102C100020E03FEF4FE757E40E94190318164CF5E8
:102C20006B857C858D859E8520E030E040E251E417
:102C30000E941F02DC01CB01BC01CD010E944900B2
:102C4000DC01CB019E838D830FC088EC90E09C83D8
:102C50008B838B819C810197F1F79C838B838D8182
:102C60009E8101979E838D838D819E81009769F758
:102C700051CD6F81788589859A850E944900DC0154
:102C8000CB019E838D838D819E819A8389838981E7
:102C90009A810197F1F79A8389833CCDAF92BF92D5
:102CA000CF92DF92EF92FF920F931F93DF93CF9318
:102CB000CDB7DEB760970FB6F894DEBF0FBECDBFBD
:102CC00069837A838B839C832D833E834F835887CC
:102CD000E986FA860B871C87AD86BE86CF86D88AA2
:102CE0002D8D3E8D4F8D58A189819A81AB81BC81FC
:102CF00079018A01E81AF90A0A0B1B0B2D853E851A
:102D00004F85588989859A85AB85BC85281B390BE9
:102D10004A0B5B0BC801B7010E940E207B018C019E
:102D20002D813E814F81588589819A81AB81BC81FB
:102D3000281B390B4A0B5B0BC801B7010E944120CD
:102D4000DA01C9019C01AD0189859A85AB85BC85F5
:102D5000820F931FA41FB51FBC01CD0160960FB653
:102D6000F894DEBF0FBECDBFCF91DF911F910F91C1
:102D7000FF90EF90DF90CF90BF90AF900895DF93DA
:102D8000CF930F92CDB7DEB789838981282F30E0AA
:102D900081E090E002C0880F991F2A95E2F7982FF2
:102DA000915082E0692F0E94530F0F90CF91DF91D5
:102DB0000895DF93CF93CDB7DEB72E970FB6F89473
:102DC000DEBF0FBECDBF81E00E94020880E060E060
:102DD0000E94A10D85EB90E00E94780D81E060E0FB
:102DE0000E94A10D8DEB90E00E94780D81EF90E0A4
:102DF0000E94F80680E090E0A0EAB1E48B879C870F
:102E0000AD87BE876B857C858D859E8520E030E013
:102E10004AEF54E40E941F02DC01CB018F839887A4
:102E2000A987BA876F81788589859A8520E030E007
:102E300040E85FE30E94790388232CF481E090E06E
:102E40009E838D833FC06F81788589859A8520E038
:102E50003FEF4FE757E40E94190318164CF56B85B6
:102E60007C858D859E8520E030E040E251E40E9423
:102E70001F02DC01CB01BC01CD010E944900DC0135
:102E8000CB019E838D830FC088EC90E09C838B8365
:102E90008B819C810197F1F79C838B838D819E812F
:102EA00001979E838D838D819E81009769F714C061
:102EB0006F81788589859A850E944900DC01CB0164
:102EC0009E838D838D819E819A83898389819A8156
:102ED0000197F1F79A83898380910B0190910C01FE
:102EE0008F31910530F081E066E041E00E943E0EB6
:102EF00005C081E066E040E00E943E0E2E960FB6CF
:102F0000F894DEBF0FBECDBFCF91DF910895AF9291
:102F1000BF92CF92DF92EF92FF920F931F93DF93B6
:102F2000CF93CDB7DEB7E091F400F091F50080814A
:102F30009181CC01A0E0B0E028E833E140E050E02E
:102F4000BC01CD010E940E20DC01CB01892F9A2FFC
:102F5000AB2FBB2790930C0180930B0180910B0149
:102F600090910C012AE030E0B9010E942D20CB01A4
:102F700090930C0180930B0180E068E00E94A10D0A
:102F800080910B0190910C010E94070E8091F4003A
:102F90009091F500FC01329680819181CC01A0E0F6
:102FA000B0E028E833E140E050E0BC01CD010E94F0
:102FB0000E20DC01CB01892F9A2FAB2FBB279093DA
:102FC000100180930F0180910F01909110012AE070
:102FD00030E0B9010E942D20CB0190931001809325
:102FE0000F0180910F0190911001CC01A0E0B0E0A1
:102FF00000D000D0EDB7FEB7319680839183A283D5
:10300000B38363E070E080E090E02AED31E040E0DF
:1030100050E0EE24FF248701E394AA24BB24650139
:103020006894A3F80E944E160F900F900F900F9087
:10303000DC01CB0190930E0180930D0120910D01D5
:1030400030910E0189E090E0821B930B90930E016A
:1030500080930D0180910D0190910E010E94BF1689
:1030600081E068E00E94A10D80910D0190910E0118
:103070000E94070ECF91DF911F910F91FF90EF906B
:10308000DF90CF90BF90AF9008950F931F93DF9381
:10309000CF93CDB7DEB7C95AD0400FB6F894DEBF94
:1030A0000FBECDBFFE01E755FF4F108279C181E011
:1030B00067E041E00E943E0EFE01EB55FF4F80E0CD
:1030C00090E0A8E4B2E480839183A283B3838E016D
:1030D0000F551F4FFE01EB55FF4F608171818281BB
:1030E000938120E030E04AEF54E40E941F02DC01AB
:1030F000CB01F80180839183A283B383FE01EF5556
:10310000FF4F608171818281938120E030E040E84F
:103110005FE30E947903882344F4FE01E156FF4FE8
:1031200081E090E09183808364C0FE01EF55FF4F02
:10313000608171818281938120E03FEF4FE757E406
:103140000E94190318160CF043C0FE01EB55FF4F07
:10315000608171818281938120E030E040E251E41E
:103160000E941F02DC01CB018E0101561F4FBC01E2
:10317000CD010E944900DC01CB01F80191838083DD
:103180001FC0FE01E356FF4F88EC90E091838083DF
:10319000FE01E356FF4F808191810197F1F7FE0117
:1031A000E356FF4F91838083DE01A156BF4FFE019E
:1031B000E156FF4F80819181019711969C938E93E8
:1031C000FE01E156FF4F808191810097D1F627C023
:1031D0008E0101561F4FFE01EF55FF4F6081718137
:1031E000828193810E944900DC01CB01F801918327
:1031F0008083DE01A556BF4FFE01E156FF4F80815F
:1032000091818D939C93FE01E556FF4F80819181C2
:103210000197F1F7FE01E556FF4F9183808381E02E
:1032200067E040E00E943E0EFE01E956FF4F80E05D
:1032300090E0A8E4B2E480839183A283B3838E01FB
:103240000D561F4FFE01E956FF4F6081718182814B
:10325000938120E030E04AEF54E40E941F02DC0139
:10326000CB01F80180839183A283B383FE01ED56E5
:10327000FF4F608171818281938120E030E040E8DE
:103280005FE30E947903882344F4FE01EF56FF4F69
:1032900081E090E09183808364C0FE01ED56FF4F92
:1032A000608171818281938120E03FEF4FE757E495
:1032B0000E94190318160CF043C0FE01E956FF4F97
:1032C000608171818281938120E030E040E251E4AD
:1032D0000E941F02DC01CB018E010F561F4FBC0163
:1032E000CD010E944900DC01CB01F801918380836C
:1032F0001FC0FE01E157FF4F88EC90E0918380836F
:10330000FE01E157FF4F808191810197F1F7FE01A6
:10331000E157FF4F91838083DE01AF56BF4FFE011F
:10332000EF56FF4F80819181019711969C938E9368
:10333000FE01EF56FF4F808191810097D1F627C0A3
:103340008E010F561F4FFE01ED56FF4F60817181B8
:10335000828193810E944900DC01CB01F8019183B5
:103360008083DE01A357BF4FFE01EF56FF4F8081E0
:1033700091818D939C93FE01E357FF4F8081918152
:103380000197F1F7FE01E357FF4F91838083DE0140
:10339000A755BF4FFE01E755FF4F80818F5F8C938C
:1033A000FE01E755FF4F8081843108F480CEFE0195
:1033B000E757FF4F80E090E0AAE7B4E48083918371
:1033C000A283B3838E010B571F4FFE01E757FF4FB8
:1033D000608171818281938120E030E04AEF54E482
:1033E0000E941F02DC01CB01F80180839183A2833C
:1033F000B383FE01EB57FF4F60817181828193811E
:1034000020E030E040E85FE30E947903882344F441
:10341000FE01ED57FF4F81E090E09183808364C00F
:10342000FE01EB57FF4F608171818281938120E023
:103430003FEF4FE757E40E94190318160CF043C002
:10344000FE01E757FF4F608171818281938120E007
:1034500030E040E251E40E941F02DC01CB018E010A
:103460000D571F4FBC01CD010E944900DC01CB016B
:10347000F801918380831FC0FE01EF57FF4F88EC56
:1034800090E091838083FE01EF57FF4F808191810F
:103490000197F1F7FE01EF57FF4F91838083DE0123
:1034A000AD57BF4FFE01ED57FF4F808191810197CE
:1034B00011969C938E93FE01ED57FF4F8081918171
:1034C0000097D1F628C08E010D571F4FFE01EB5714
:1034D000FF4F60817181828193810E944900DC01EC
:1034E000CB01F80191838083DE01A158BF4FFE011B
:1034F000ED57FF4F8081918111969C938E93FE0131
:10350000E158FF4F808191810197F1F7FE01E15869
:10351000FF4F91838083FE01E755FF4F108279C1F1
:1035200081E067E041E00E943E0EFE01E558FF4F5A
:1035300080E090E0ACE8B2E480839183A283B3831F
:103540008E0109581F4FFE01E558FF4F60817181C0
:103550008281938120E030E04AEF54E40E941F0210
:10356000DC01CB01F80180839183A283B383FE0148
:10357000E958FF4F608171818281938120E030E0C2
:1035800040E85FE30E947903882344F4FE01EB588E
:10359000FF4F81E090E09183808364C0FE01E95891
:1035A000FF4F608171818281938120E03FEF4FE77F
:1035B00057E40E94190318160CF043C0FE01E558A9
:1035C000FF4F608171818281938120E030E040E291
:1035D00051E40E941F02DC01CB018E010B581F4FEA
:1035E000BC01CD010E944900DC01CB01F8019183AF
:1035F00080831FC0FE01ED58FF4F88EC90E091835F
:103600008083FE01ED58FF4F808191810197F1F792
:10361000FE01ED58FF4F91838083DE01AB58BF4F11
:10362000FE01EB58FF4F80819181019711969C9389
:103630008E93FE01EB58FF4F808191810097D1F668
:1036400027C08E010B581F4FFE01E958FF4F6081C4
:103650007181828193810E944900DC01CB01F801D4
:1036600091838083DE01AF58BF4FFE01EB58FF4FBF
:10367000808191818D939C93FE01EF58FF4F808153
:1036800091810197F1F7FE01EF58FF4F91838083FD
:1036900081E067E040E00E943E0EFE01E359FF4FEB
:1036A00080E090E0ACE8B2E480839183A283B383AE
:1036B0008E0107591F4FFE01E359FF4F6081718151
:1036C0008281938120E030E04AEF54E40E941F029F
:1036D000DC01CB01F80180839183A283B383FE01D7
:1036E000E759FF4F608171818281938120E030E052
:1036F00040E85FE30E947903882344F4FE01E9591E
:10370000FF4F81E090E09183808364C0FE01E75920
:10371000FF4F608171818281938120E03FEF4FE70D
:1037200057E40E94190318160CF043C0FE01E35938
:10373000FF4F608171818281938120E030E040E21F
:1037400051E40E941F02DC01CB018E0109591F4F79
:10375000BC01CD010E944900DC01CB01F80191833D
:1037600080831FC0FE01EB59FF4F88EC90E09183EE
:103770008083FE01EB59FF4F808191810197F1F722
:10378000FE01EB59FF4F91838083DE01A959BF4FA2
:10379000FE01E959FF4F80819181019711969C9319
:1037A0008E93FE01E959FF4F808191810097D1F6F8
:1037B00027C08E0109591F4FFE01E759FF4F608155
:1037C0007181828193810E944900DC01CB01F80163
:1037D00091838083DE01AD59BF4FFE01E959FF4F50
:1037E000808191818D939C93FE01ED59FF4F8081E3
:1037F00091810197F1F7FE01ED59FF4F918380838D
:10380000DE01A755BF4FFE01E755FF4F80818F5F57
:103810008C93FE01E755FF4F8081843108F480CE00
:10382000FE01E15AFF4F80E090E0AAE7B4E4808314
:103830009183A283B3838E01055A1F4FFE01E15A83
:10384000FF4F608171818281938120E030E04AEFF7
:1038500054E40E941F02DC01CB01F80180839183B4
:10386000A283B383FE01E55AFF4F6081718182819B
:10387000938120E030E040E85FE30E9479038823F1
:1038800044F4FE01E75AFF4F81E090E0918380838A
:1038900064C0FE01E55AFF4F60817181828193818E
:1038A00020E03FEF4FE757E40E94190318160CF091
:1038B00043C0FE01E15AFF4F608171818281938193
:1038C00020E030E040E251E40E941F02DC01CB0125
:1038D0008E01075A1F4FBC01CD010E944900DC0137
:1038E000CB01F801918380831FC0FE01E95AFF4F8D
:1038F00088EC90E091838083FE01E95AFF4F80813C
:1039000091810197F1F7FE01E95AFF4F918380837E
:10391000DE01A75ABF4FFE01E75AFF4F8081918118
:10392000019711969C938E93FE01E75AFF4F808179
:1039300091810097D1F628C08E01075A1F4FFE01D2
:10394000E55AFF4F60817181828193810E94490015
:10395000DC01CB01F80191838083DE01AB5ABF4FBC
:10396000FE01E75AFF4F8081918111969C938E93BF
:10397000FE01EB5AFF4F808191810197F1F7FE0123
:10398000EB5AFF4F91838083FE01E755FF4F108272
:103990004BC181E067E041E00E943E0EFE01EF5A1C
:1039A000FF4F80E090E0A8ECB2E480839183A28393
:1039B000B3838E01035B1F4FFE01EF5AFF4F6081FF
:1039C00071818281938120E030E04AEF54E40E94CB
:1039D0001F02DC01CB01F80180839183A283B383B2
:1039E000FE01E35BFF4F608171818281938120E062
:1039F00030E040E85FE30E947903882344F4FE014D
:103A0000E55BFF4F81E090E09183808364C0FE011D
:103A1000E35BFF4F608171818281938120E03FEF02
:103A20004FE757E40E94190318160CF043C0FE013B
:103A3000EF5AFF4F608171818281938120E030E0F5
:103A400040E251E40E941F02DC01CB018E01055BC4
:103A50001F4FBC01CD010E944900DC01CB01F801E0
:103A6000918380831FC0FE01E75BFF4F88EC90E0ED
:103A700091838083FE01E75BFF4F808191810197F5
:103A8000F1F7FE01E75BFF4F91838083DE01A55BC9
:103A9000BF4FFE01E55BFF4F808191810197119639
:103AA0009C938E93FE01E55BFF4F8081918100978F
:103AB000D1F627C08E01055B1F4FFE01E35BFF4F70
:103AC00060817181828193810E944900DC01CB0178
:103AD000F80191838083DE01A95BBF4FFE01E55BA6
:103AE000FF4F808191818D939C93FE01E95BFF4F95
:103AF000808191810197F1F7FE01E95BFF4F91838E
:103B0000808381E067E040E00E943E0EFE01ED5BB5
:103B1000FF4F80E090E0A8ECB2E480839183A28321
:103B2000B3838E01015C1F4FFE01ED5BFF4F60818F
:103B300071818281938120E030E04AEF54E40E9459
:103B40001F02DC01CB01F80180839183A283B38340
:103B5000FE01FF96608171818281938120E030E0D7
:103B600040E85FE30E94790388232CF481E090E031
:103B70009EAF8DAF46C0FE01FF966081718182814C
:103B8000938120E03FEF4FE757E40E941903181696
:103B900064F5FE01ED5BFF4F60817181828193814D
:103BA00020E030E040E251E40E941F02DC01CB0142
:103BB000BC01CD010E944900DC01CB019EAF8DAF5D
:103BC0000FC088EC90E09CAF8BAF8BAD9CAD0197A4
:103BD000F1F79CAF8BAF8DAD9EAD01979EAF8DAFD2
:103BE0008DAD9EAD009769F716C0FE01FF9660810E
:103BF0007181828193810E944900DC01CB019EAFDB
:103C00008DAF8DAD9EAD9AAF89AF89AD9AAD01975D
:103C1000F1F79AAF89AFDE01A755BF4FFE01E75517
:103C2000FF4F80818F5F8C93FE01E755FF4F8081AE
:103C3000843108F4AECE80E090E0AAE7B4E48DAB26
:103C40009EABAFABB8AF6DA97EA98FA998AD20E0B0
:103C500030E04AEF54E40E941F02DC01CB0189AB43
:103C60009AABABABBCAB69A97AA98BA99CA920E0A4
:103C700030E040E85FE30E94790388232CF481E080
:103C800090E098AB8FA73FC069A97AA98BA99CA99E
:103C900020E03FEF4FE757E40E94190318164CF558
:103CA0006DA97EA98FA998AD20E030E040E251E4F3
:103CB0000E941F02DC01CB01BC01CD010E94490022
:103CC000DC01CB0198AB8FA70FC088EC90E09EA7DA
:103CD0008DA78DA59EA50197F1F79EA78DA78FA50E
:103CE00098A9019798AB8FA78FA598A9009769F716
:103CF00014C069A97AA98BA99CA90E944900DC017A
:103D0000CB0198AB8FA78FA598A99CA78BA78BA554
:103D10009CA50197F1F79CA78BA7FE01E755FF4FE4
:103D20001082F7C081E067E041E00E943E0E80E033
:103D300090E0A8E4B3E48FA398A7A9A7BAA76FA1BE
:103D400078A589A59AA520E030E04AEF54E40E94C6
:103D50001F02DC01CB018BA39CA3ADA3BEA36BA16F
:103D60007CA18DA19EA120E030E040E85FE30E94AD
:103D7000790388232CF481E090E09AA389A33FC0C3
:103D80006BA17CA18DA19EA120E03FEF4FE757E4FE
:103D90000E94190318164CF56FA178A589A59AA55C
:103DA00020E030E040E251E40E941F02DC01CB0140
:103DB000BC01CD010E944900DC01CB019AA389A37B
:103DC0000FC088EC90E098A38F8F8F8D98A10197FA
:103DD000F1F798A38F8F89A19AA101979AA389A33C
:103DE00089A19AA1009769F714C06BA17CA18DA14C
:103DF0009EA10E944900DC01CB019AA389A389A15D
:103E00009AA19E8F8D8F8D8D9E8D0197F1F79E8F3C
:103E10008D8F81E067E040E00E943E0E80E090E000
:103E2000A8E4B3E4898F9A8FAB8FBC8F698D7A8DAC
:103E30008B8D9C8D20E030E04AEF54E40E941F02FD
:103E4000DC01CB018D8B9E8BAF8BB88F6D897E890A
:103E50008F89988D20E030E040E85FE30E9479038D
:103E600088232CF481E090E09C8B8B8B3FC06D8984
:103E70007E898F89988D20E03FEF4FE757E40E94BD
:103E8000190318164CF5698D7A8D8B8D9C8D20E069
:103E900030E040E251E40E941F02DC01CB01BC0192
:103EA000CD010E944900DC01CB019C8B8B8B0FC0A4
:103EB00088EC90E09A8B898B89899A890197F1F730
:103EC0009A8B898B8B899C8901979C8B8B8B8B8997
:103ED0009C89009769F714C06D897E898F89988DB8
:103EE0000E944900DC01CB019C8B8B8B8B899C89C8
:103EF000988B8F878F8598890197F1F7988B8F879B
:103F0000DE01A755BF4FFE01E755FF4F80818F5F50
:103F10008C93FE01E755FF4F8081843108F402CF76
:103F200080E090E0AAE7B4E48B879C87AD87BE87EA
:103F30006B857C858D859E8520E030E04AEF54E4DA
:103F40000E941F02DC01CB018F839887A987BA8763
:103F50006F81788589859A8520E030E040E85FE3CD
:103F60000E94790388232CF481E090E09E838D8366
:103F70003FC06F81788589859A8520E03FEF4FE7C4
:103F800057E40E94190318164CF56B857C858D85C6
:103F90009E8520E030E040E251E40E941F02DC01F7
:103FA000CB01BC01CD010E944900DC01CB019E8305
:103FB0008D830FC088EC90E09C838B838B819C81E8
:103FC0000197F1F79C838B838D819E8101979E835E
:103FD0008D838D819E81009769F714C06F817885EC
:103FE00089859A850E944900DC01CB019E838D83DF
:103FF0008D819E819A83898389819A810197F1F7C6
:104000009A838983C755DF4F0FB6F894DEBF0FBE82
:10401000CDBFCF91DF911F910F910895629FD00185
:10402000739FF001829FE00DF11D649FE00DF11D73
:10403000929FF00D839FF00D749FF00D659FF00D22
:104040009927729FB00DE11DF91F639FB00DE11D0F
:10405000F91FBD01CF0111240895AA1BBB1B51E11B
:1040600007C0AA1FBB1FA617B70710F0A61BB70BE8
:10407000881F991F5A95A9F780959095BC01CD018D
:104080000895A1E21A2EAA1BBB1BFD010DC0AA1F99
:10409000BB1FEE1FFF1FA217B307E407F50720F0B1
:1040A000A21BB30BE40BF50B661F771F881F991F2C
:1040B0001A9469F760957095809590959B01AC0175
:1040C000BD01CF0108952F923F924F925F926F9260
:1040D0007F928F929F92AF92BF92CF92DF92EF9298
:1040E000FF920F931F93CF93DF93CDB7DEB7CA1B19
:1040F000DB0B0FB6F894DEBF0FBECDBF09942A8844
:10410000398848885F846E847D848C849B84AA84EB
:10411000B984C884DF80EE80FD800C811B81AA8178
:10412000B981CE0FD11D0FB6F894DEBF0FBECDBF43
:08413000ED010895F894FFCFA2
:1041380057454C434F4D4500456E746572204944C0
:10414800203A2000456E74657220706173733A00DE
:1041580057454C434F4D452049442000547279201F
:10416800416761696E20212000202020506C656124
:1041780073652C00456E74657220796F75722064C2
:104188006174612E0074656D70203A20006C65645E
:1041980073203A2000000000000000000007080912
:1041A8000A0405060B0102030C0E000F0D04050698
:1041B80007000102033F065B4F666D7D077F6F00B6
:0C41C80001EF000206018717065B4F00A4
:00000001FF
